:100000000000012089970000B1970000B39700001D
:10001000B5970000B7970000B997000000000000F6
:10002000000000000000000000000000BB9700007E
:10003000BD97000000000000BF970000C1970000BE
:10004000B56F0000C3970000A56E0000A557000023
:10005000D5430000C3970000154D0000C397000072
:10006000C3970000C3970000C3970000C397000028
:10007000C3970000C3970000C3970000C397000018
:10008000C397000051270000C3970000C3970000EA
:1000900091270000C3970000C3970000C39700009A
:1000A000C3970000C3970000C3970000C3970000E8
:1000B000C3970000C397000000000000000000008C
:1000C000C3970000C3970000C3970000C3970000C8
:1000D000C3970000C3970000C39700000000000012
:1000E0000000000000000000000000000000000010
:1000F0000000000000000000000000000000000000
:1001000000000000000000000000000000000000EF
:1001100000000000000000000000000000000000DF
:1001200000000000000000000000000000000000CF
:1001300000000000000000000000000000000000BF
:1001400000000000000000000000000000000000AF
:10015000000000000000000000000000000000009F
:10016000000000000000000000000000000000008F
:10017000000000000000000000000000000000007F
:10018000000000000000000000000000000000006F
:10019000000000000000000000000000000000005F
:1001A000000000000000000000000000000000004F
:1001B000000000000000000000000000000000003F
:1001C000000000000000000000000000000000002F
:1001D000000000000000000000000000000000001F
:1001E000000000000000000000000000000000000F
:1001F00000000000000000000000000000000000FF
:1002000010B5054C237833B9044B13B10448AFF350
:1002100000800123237010BD9C020020000000001C
:10022000100E01000C4B43B10C480D4910B5AFF353
:1002300000800C48036823B910BD0A48036833B92D
:100240007047094B002BF7D0BDE810401847064B0C
:10025000002BF5D0184700BF00000000100E010071
:10026000A00200204402002000000000154B002BDB
:1002700008BF134B9D46A3F5803A00218B460F46DD
:100280001348144A121A0DF0EEFE0F4B002B00D04B
:1002900098470E4B002B00D0984700200021040007
:1002A0000D000D48002802D00C48AFF300800DF07F
:1002B0007BFE2000290007F0DDFA0DF061FE00BF93
:1002C0000000080000000120000000000000000005
:1002D0009C020020F40E002000000000000000003E
:1002E00080B500AF09F04AFA00BF80BD80B588B084
:1002F00000AFF860B9607A607B68002B22D00023E1
:10030000FB610A23BB61BA68FB6913447A6819462A
:10031000002009F0E5F97861FA697B691344FB6113
:100320007A687B69D31A7B607B69002B05D1BB6936
:10033000013BBB61BB69002B03D07B68002BE2D182
:1003400000E000BF00BF2037BD4680BD80B584B04F
:1003500002AF78603960064B00934023054A396844
:10036000786800F01DF800BF0837BD4680BD00BFAB
:10037000ED020000B802002080B483B000AF7860C6
:1003800000BF0C37BD465DF8047B704780B483B076
:1003900000AF786000BF0C37BD465DF8047B704746
:1003A00080B5A0B002AFF860B9607A603B60B86811
:1003B00003F02BF87B68FB643B683B6500237B659F
:1003C000002387F858300023FB65D7F880303B6660
:1003D00000237B6707F134017B6F0822B86803F0C4
:1003E000C7F808237B67FB6B3B64BB6B9BB2A7F82A
:1003F0004430002387F8483097F8343003F0030383
:10040000DBB2012B35D17B6BC3F39523FB6697F8E9
:100410003430C3F3C203DBB287F8463097F8343088
:10042000C3F38003DBB2002B14BF01230023DBB234
:1004300087F84730BB8EC3F38313DBB2BB66BB6E5A
:100440009A0007F11C017B6FB86803F091F8BB6E4E
:100450009B007A6F13447B6707F1400207F11C0190
:1004600007F14C0300931346BA6EF86E00F0D8FE05
:100470003EE097F8343003F00303DBB2022B37D1B0
:10048000FB8EC3F389139BB23B6797F83430C3F3F9
:10049000C203DBB287F8463097F83430C3F38003E9
:1004A000DBB2002B14BF01230023DBB287F84730F7
:1004B0003B6F082B28BF08237B6607F114017B6F75
:1004C0007A6EB86803F054F87A6F7B6E13447B67DA
:1004D0003A6F7B6ED31A3B6707F14C0307F140027A
:1004E00007F11400796E00F03DFF3B6F002BDFD168
:1004F000B86802F09AFF00BF7837BD4680BD0000A3
:1005000080B483B000AF78603960044B01221A7068
:1005100000BF0C37BD465DF8047B704738030020F0
:10052000B0B58CB000AF0346FB711A4B07F108045D
:100530001D460FCD0FC495E80F0084E80F00062379
:10054000BB604FF0FF33FB604FF0FF333B614FF078
:10055000FF337B614FF0EB733B62FB79002B01D0E3
:100560000D4A00E0002207F1080319460B4805F088
:10057000F7FEF862FB6ABB62BB6A002B02D0B86A66
:1005800001F04CFA064AFB79137000BF3037BD46C4
:10059000B0BD00BF00F70000010500000000002012
:1005A0003903002080B582B000AF0123FB71FB79D5
:1005B0001846FFF7B5FF00BF0837BD4680BD0000F5
:1005C00080B588B000AFF860B9607A607B68FB776F
:1005D000114B00221A70FB7F1A46B9680F4806F0CB
:1005E0001BF8B861BB697B617B69002B02D078691D
:1005F00001F014FA00BF0A4B1B78002B07D0064B02
:100600001B78DBB283F00103DBB2002BF3D100BF18
:100610002037BD4680BD00BF380300200000002009
:100620003903002080B584B002AF78603960064B92
:1006300000934023054A39687868FFF7B1FE00BF90
:100640000837BD4680BD00BFC1050000F80200208C
:1006500080B483B000AF786000BF0C37BD465DF852
:10066000047B704780B582B000AF7860044805F025
:10067000BFFE0020FFF754FF00BF0837BD4680BD16
:100680000000002080B483B000AF78607B68012256
:100690005A7200BF0C37BD465DF8047B70470000FE
:1006A00080B582B000AF4FF0FF337B60FFF718FEDC
:1006B00004210A4800F0EEFC78600848FFF7E2FFEA
:1006C000FFF770FF0421064800F0E4FC786004485E
:1006D000FFF7D8FF00BF0837BD4680BD08000020E7
:1006E0001400002080B582B000AF786039607B686C
:1006F0001B681B6839687868984700BF0837BD4693
:1007000080BD80B582B000AF78607B681B685B6895
:100710007868984700BF0837BD4680BD80B483B075
:1007200000AF78600B46FB707B68FA781A7200BFE6
:100730000C37BD465DF8047B704780B483B000AFD2
:1007400078607B681B7A18460C37BD465DF8047BE1
:10075000704780B483B000AF78607B6801225A7222
:1007600000BF0C37BD465DF8047B704780B483B092
:1007700000AF78607B685B7A18460C37BD465DF841
:10078000047B704790B486B000AF786039607B68B6
:100790003A6853E8004F44EA020043E8000191F050
:1007A000000FF6D17C613861F9603B691846183753
:1007B000BD4690BC704790B486B000AF7860396099
:1007C0007B683A6853E8004F04EA020043E80001FE
:1007D00091F0000FF6D17C613861F9607B691846B1
:1007E0001837BD4690BC704780B582B000AF7860C6
:1007F00001217868FFF7C6FF034618460837BD4653
:1008000080BD80B582B000AF786000217868FFF7C6
:10081000D2FF034618460837BD4680BD80B586B076
:1008200000AF78601F4BFF229A601E4B00221A60B7
:100830001C4B00225A601B4B0022C3F81824194B92
:100840000022C3F81424174B002283F81C241648F6
:1008500002F042FD38613B69002B01D03B691CE08E
:10086000124A134BD31ADB08FB6000237B610FE0B5
:100870007A6913465B0013449B001A460D4B1344E0
:10088000BB607B699AB2BB681A807B6901337B616C
:100890007A69FB689A42EBD3002318461837BD46A5
:1008A00080BD00BF0C0400202CF700004C0E01009E
:1008B000140E01004802002080B400AF044A054B2A
:1008C000D31ADB081846BD465DF8047B704700BFAD
:1008D0004C0E0100140E010080B586B000AF7860A8
:1008E0000B46FB70FB78002B23D0FFF7E5FF386148
:1008F00000237B6117E07A6913465B0013449B0079
:100900001A460E4B1344FB60FB685B881A467B68F3
:100910001B689A4204D17B687A691A60002309E057
:100920007B6901337B617A693B699A42E3D3052392
:1009300000E0002318461837BD4680BD480200205D
:1009400080B584B000AF78600B46FB70FA783B1D31
:1009500011461846FFF7C0FF0346002B07D17B68FE
:10096000DB00054A1344FB60FB681B6800E00023C2
:1009700018461037BD4680BD140E010080B485B006
:1009800000AF78600B46FB707B68DB00144A1344B1
:10099000BB60FB78013B032B18D801A252F823F06F
:1009A000B1090000B7090000BD090000C509000039
:1009B0000023FB730DE00023FB730AE0BB681B7987
:1009C000FB7306E0BB685B79FB7302E00023FB73FB
:1009D00000BFFB7B18461437BD465DF8047B7047AB
:1009E000140E010080B588B000AF3D48FFF7FCFE53
:1009F0003C48FFF7F9FE3C4B5B68FB613A4B9B6858
:100A00003B61FA693B69134002339B00364A134449
:100A10000433BB611BE0FB690133FB61BB695B888D
:100A2000C3F389139BB21A46BB691B88C3F38913AE
:100A30009BB213441A46FB691344FB61FA693B6994
:100A4000134002339B00284A13440433BB61BB6943
:100A50001B7803F00303DBB2002BDCD000237B61A7
:100A600011E07B699B003A461A44FB69591CF96105
:100A700039690B401C4902339B000B445B681360CF
:100A80007B6901337B617B69012BEAD93B78C3F336
:100A90000103DBB2012B0CD0022B00D012E07B88CB
:100AA000C3F389139BB203339B08FA691344FB61B8
:100AB00008E03B88C3F38313DBB21A46FB69134497
:100AC000FB6100BF0748FFF79CFEF860FB68002B46
:100AD00002D0054AFB69536000BF2037BD4680BD88
:100AE00024080020200800200C04002080B487B0D7
:100AF00000AFF860B9607A603B603B685A1C3A60AE
:100B00003A6A134002339B00234A134404337B6147
:100B10007A691378012161F301031370FB6803F014
:100B20001003002B14BF01230023D9B27A69137874
:100B300061F382031370FB68DBB203F00703D9B2E1
:100B40007A69137861F3C50313707B68DBB203F035
:100B50000F03D9B27A69138861F389131380BB68D4
:100B6000C3F315017A69136861F39F231360FB686F
:100B70001B0C7B823B685A1C3A603A6A13407A8AA3
:100B8000054902339B000B445A603B6818461C37EA
:100B9000BD465DF8047B70470C04002080B588B02A
:100BA00000AF786039607B680233BB6102237B61F0
:100BB0000123FB74002001F0D7FE184B1A683B6834
:100BC0001A60164B9A68154B5968144B1B68CB1A60
:100BD00013440133FB61BA697B691344FB600BE08A
:100BE000FFF700FF0D4B9A680C4B59680B4B1B68C5
:100BF000CB1A13440133FB61FA68FB699A42EFD8C0
:100C0000064B1A68BB691344044A1360002001F0C4
:100C1000B5FEFB7C18462037BD4680BD0C04002085
:100C200080B58AB002AFF860B9607A603B601F4B54
:100C30009B68BB6107F1140319463868FFF7AEFFE4
:100C40000346002B23D07A69BB69009313463A68A8
:100C5000B968F868FFF74AFF03467B610023FB6130
:100C600011E07B695A1C7A61BA691340FA699200F3
:100C700079680A4412680D4902339B000B445A609C
:100C8000FB690133FB61FA693B689A42E9D3074B80
:100C900093F81C34002B05D000BF00F02BF803465E
:100CA000002BFAD100BF2037BD4680BD0C040020C8
:100CB00080B582B000AF78603960002300223968C7
:100CC0007868FFF7ADFF00BF0837BD4680BD000064
:100CD00080B400AF064B5A68054B1B689A420CBFA4
:100CE00001230023DBB21846BD465DF8047B704744
:100CF0000C04002080B596B000AFFFF7E9FF034673
:100D0000002B01D000238DE1944B0022C3F818245E
:100D1000BFF34F8F914B5B687B65904B9B68BB63C8
:100D20007A6DBB6B134002339B008C4A134404332F
:100D30003B650023FB640023BB6400237B631BE053
:100D40007B6D01337B653B6D5B88C3F389139BB27D
:100D50001A463B6D1B88C3F389139BB213441A4692
:100D60007B6D13447B657A6DBB6B134002339B0034
:100D70007A4A134404333B653B6D1B7803F003034D
:100D8000DBB2002BDCD000237B6411E07B6C9B008A
:100D90003A461A447B6D591C7965B96B0B406F4913
:100DA00002339B000B445B6813607B6C01337B64F4
:100DB0007B6C012BEAD93B7803F00303DBB2022BF7
:100DC00040F092807B88C3F389139BB23B637B889E
:100DD000C3F389139BB2502BA8BF5023FB62FB6A5D
:100DE0009BB2C3F309039AB27B8862F38F137B80B3
:100DF000FB6A0833BB623B78C3F3C203DBB27B639D
:100E0000B96A574802F074FAF864FB6C002B00F0E2
:100E1000C880F86C02F0F9FA3946BB6C0822F86C0D
:100E200002F093FBBB6C0833BB647B6DDA43BB6B96
:100E3000134001339B007B62FA6A7B6A9A423DD978
:100E40007B6A002B08D07A6DBB6B134002339B008A
:100E5000424A1344043300E0424B3B627B6A002B5E
:100E600002D07B6ADBB201E0FB6ADBB2FB777B6A14
:100E7000002B01D03B4B00E00023BB617B6A002BC1
:100E800006D0FB6ADAB27B6ADBB2D31ADBB200E0CF
:100E90000023FB75FA7FBB6C396AF86C02F055FBD6
:100EA000FB7FBA6C1344BB64BB69002B15D0FA7D81
:100EB000BB6CB969F86C02F048FB0EE07A6DBB6B55
:100EC000134002339B00254A134404333B61BB6C3F
:100ED000FA6A3969F86C02F038FB3B6B03339B0804
:100EE0007A6D13447B655CE03B7803F00303DBB26F
:100EF000012B56D13B88C3F38313DBB2062B28BFEB
:100F00000623DBB203F00F03DAB23B8862F38913E6
:100F10003B803B88C3F38313DBB20233FB603B7837
:100F2000C3F3C203DBB27B63FB689B0019460C482A
:100F300002F0DEF9F864FB6C002B32D0F86C02F0A2
:100F400064FA3946BB6C0822F86C02F0FEFABB6CFE
:100F50000833BB6400237B641BE000BF0C0400204B
:100F60002CF70000180400207B6D5A1C7A65BA6BC0
:100F7000134002339B002D4A1344191DBB6C0422FD
:100F8000F86C02F0E2FABB6C0433BB647B6C013397
:100F90007B643B88C3F38313DBB21A467B6C9A42B3
:100FA000E2D8FB6C002B37D0204BD3F810343B64D5
:100FB0001E4BD3F81834002B1AD0F86C02F035FA17
:100FC0002AE0002387F83F30386CFFF7CFFB034659
:100FD000002B02D0012387F83F3097F83F30002BD9
:100FE00003D0F96C386CFFF77DFB3B6C5B683B64AE
:100FF0003B6C002BE5D1F86C02F017FA002001F0F1
:10100000B3FC0A4BD3F81834002B02D1074A7B6D8E
:101010005360002001F0B2FCFFF75AFE034683F054
:101020000103DBB218465837BD4680BD0C040020D2
:1010300080B584B000AF0023FB601FE0144BD3F8F1
:101040001034BB600123FB710DE0B868FFF775FB3E
:1010500003461A46FB689A4202D10023FB7105E061
:10106000BB685B68BB60BB68002BEED1FB79002BD3
:1010700001D0FB6807E0FB680133FB60FB68092BCC
:10108000DCDD4FF0FF3318461037BD4680BD00BF92
:101090000C04002080B584B000AF78600B46FB7074
:1010A000FFF7C6FFF860FB68B3F1FF3F01D1FB68B3
:1010B0001EE0FB68DBB219467868FFF72FFB0E4B8A
:1010C000D3F81034002B07D10B4A7B68C2F81034D8
:1010D0007B6800225A600AE0074BD3F810345A6844
:1010E0007B685A60044BD3F810347A685A60FB6806
:1010F00018461037BD4680BD0C04002080B582B074
:1011000000AF0C4BD3F810347B600A4B012283F8FC
:101110001C2408E07868FFF71CFB7868FFF7F1FAF9
:101120007B685B687B607B68002BF3D100BF08376E
:10113000BD4680BD0C04002090B583B000AF786040
:1011400039607B68DB7983F00103DBB2002B28D0A8
:101150007B681B7A002B12D07B689B881A467B68C1
:101160009B7919461046FFF709FC03461A460F4BB8
:1011700053F822301A460E49386801F0CAFC7B68E1
:101180009B791A460B4B53F822407B689B880021C1
:101190001846FFF7D5FB034622460749386801F099
:1011A000B8FC00BF0C37BD4690BD00BF3400002026
:1011B000B8F7000020000020BCF7000080B584B024
:1011C00000AFF860B9601346FB71FB68DB7983F010
:1011D0000103DBB2002B0FD0FB681B7A002B06D07B
:1011E0000C4B1B681A460C49B86801F092FC0B497D
:1011F000B86801F08EFC06E0FB79002B03D00749AC
:10120000B86801F086FCB86801F06AFC00BF1037CE
:10121000BD4680BD34000020B8F70000C8F70000CC
:10122000B0B58AB004AFF860B9607A603B60BB6A61
:101230001B7BFB75BB6A00221A73B96A3868FFF71B
:101240007BFF7B68062B7FD801A252F823F000BFFA
:101250006D12000077120000871200009B12000040
:10126000B9120000E112000011130000F968B86A19
:1012700001F04FFC69E0BB681B681A46F968B86A60
:1012800001F047FC61E0BB681A68BB6804331B6867
:10129000F968B86A01F03DFC57E0BB681A68BB68A2
:1012A00004331968BB6808331B6800930B46F96860
:1012B000B86A01F02EFC48E0BB681968BB680433CB
:1012C0001868BB6808331B68BA680C321268019250
:1012D000009303460A46F968B86A01F01AFC34E044
:1012E000BB681868BB6804331C68BB6808331B689C
:1012F000BA680C321268B96810310968029101921B
:10130000009323460246F968B86A01F002FC1CE02B
:10131000BB681C68BB6804331D68BB6808331B6866
:10132000BA680C321268B96810310968B8681430AC
:10133000006803900291019200932B462246F968BF
:10134000B86A01F0E6FB00E000BF0022B96A386825
:10135000FFF734FFBB6AFA7D1A7300BF1837BD462A
:10136000B0BD00BF80B586B000AFF860B9607A60EC
:101370003B60BB68082B5BD83B681B7BFB743B68FE
:1013800000221A7339687868FFF7D6FE00237B6164
:1013900014E07A69BB689A4209D2FA687B691344FF
:1013A0001B781A462449386801F0B3FB03E023494F
:1013B000386801F0AEFB7B6901337B617B69072BE9
:1013C000E7D91F49386801F0A4FB00237B6123E0C3
:1013D0007A69BB689A4218D2FA687B6913441B7811
:1013E000BB740CF005FE0246BB7C013313441B7832
:1013F00003F09703002B01D0BB7C00E02E231A469C
:101400001049386801F085FB03E00F49386801F0A6
:1014100080FB7B6901337B617B69072BD8D9012273
:1014200039687868FFF7CAFE3B68FA7C1A7300E0F7
:1014300000BF1837BD4680BDCCF70000D4F70000D0
:10144000D8F70000DCF70000E0F7000080B483B0BC
:1014500000AF78604FF0A04318460C37BD465DF8EA
:10146000047B704780B584B000AF786008461146B1
:101470001A460346FB700B46BB7013467B703B1D40
:101480001846FFF7E3FFF8607A68F978BB785B00ED
:1014900019437B789B0019433B7E1B0219433B7F1A
:1014A0001B041943FB6802F5E07243F8221000BFE9
:1014B0001037BD4680BD80B584B002AF7860002390
:1014C0000193002300930023012201217868FFF794
:1014D000C9FF00BF0837BD4680BD80B584B000AFEE
:1014E00078603B1D1846FFF7B1FFF8607B6801226A
:1014F00002FA03F31946F86800F072F800BF1037DB
:10150000BD4680BD80B584B000AF78603B1D1846F5
:10151000FFF79CFFF8607B68012202FA03F319468B
:10152000F86800F06CF800BF1037BD4680BD80B58C
:1015300084B000AF78603B1D1846FFF787FFF86066
:10154000FB68D3F80435BB60BB68DA437B680121D4
:1015500001FA03F31A40FB68C3F808257B680122EF
:101560009A40BB681A40FB68C3F80C2500BF1037CF
:10157000BD4680BD80B582B000AF786039603B6801
:10158000002B03D17868FFF7BDFF02E07868FFF712
:10159000A4FF00BF0837BD4680BD80B584B000AF52
:1015A00078603B1D1846FFF751FFF860F86800F0BF
:1015B0000AF802467B6822FA03F303F00103184697
:1015C0001037BD4680BD80B483B000AF78607B68C3
:1015D000D3F8043518460C37BD465DF8047B7047D8
:1015E00080B483B000AF786039607B683A68C3F834
:1015F000082500BF0C37BD465DF8047B704780B4FA
:1016000083B000AF786039607B683A68C3F80C2516
:1016100000BF0C37BD465DF8047B704780B584B0D1
:1016200000AF78600E4A7B6813441B781846FFF7BA
:10163000B4FF0346002B14BF01230023FB73FB7B85
:10164000002B14BF01230023DBB283F00103DBB2C4
:1016500003F00103DBB218461037BD4680BD00BF62
:10166000E4F7000080B582B000AF7860054A7B687F
:1016700013441B7800211846FFF77CFF00BF083792
:10168000BD4680BDE4F7000080B582B000AF786051
:10169000054A7B6813441B7801211846FFF76AFF4F
:1016A00000BF0837BD4680BDE4F7000080B582B0BA
:1016B00000AF00237B6005E07868FFF7E5FF7B68FB
:1016C00001337B607B68032BF6D900BF0837BD462A
:1016D00080BD80B582B000AF00237B6005E07868F4
:1016E000FFF7C0FF7B6801337B607B68032BF6D973
:1016F00000BF0837BD4680BD80B582B000AF7860BE
:10170000054A7B6813441B781846FFF710FF00BF9B
:101710000837BD4680BD00BFE4F7000080B582B049
:1017200000AF00237B6009E0094A7B6813441B7803
:101730001846FFF7C0FE7B6801337B607B68032B94
:10174000F2D9FFF7B3FF00BF0837BD4680BD00BF29
:10175000E4F7000080B485B000AF78604FF0FF334D
:10176000BB600023FB600DE00B4AFB6813441B7851
:101770001A467B689A4202D1FB68BB6005E0FB68B1
:101780000133FB60FB68032BEED9BB6818461437A6
:10179000BD465DF8047B7047E8F7000080B588B06F
:1017A00000AF78600023FB774BE02A4B1A68FB7F81
:1017B000DB001344BB61BB691B781A4601239340CD
:1017C0007B61254B1A687B691340002B36D07B69FF
:1017D000DA43214B1B6813401F4A1360BB691B7817
:1017E000184603F086FA0346FB74BB691B781A4659
:1017F000012393401A46194B1B681340FA7CB969C0
:1018000009788A40934219D1FB7CBA695278012A3F
:101810000CBF01220022D2B293420CBF012300234D
:10182000DBB2FB60BB695B68002B07D0BB695B6800
:10183000BA691278F968C9B210469847FB7F01333C
:10184000FB77074B1B78FA7F9A42AED300BF203755
:10185000BD4680BD2C0800205C08002058080020F0
:101860003008002080B584B000AF78600B46FB7074
:1018700001227B6802FA03F3FB601E4B184601F05D
:101880002BF8B860BB68002B30D11B4B1A68FB6883
:101890001340002B22D1786803F02BFA0346002B6B
:1018A00006D0164B1A68FB681343144A136006E00F
:1018B000FB68DA43114B1B681340104A13600E4B50
:1018C0001A68FB6813430C4A13600A480C4B1B68E8
:1018D0000022194600F0CCFFB86008E0FB68DA434C
:1018E000054B1B681340044A136000E000BF10372B
:1018F000BD4680BD380800205C0800205808002044
:101900003408002080B588B000AFF8600B467A60DC
:10191000FB727B68042B01D8072349E003F0ECF845
:10192000034683F00103DBB2002B07D003F0A4F8D9
:10193000F861FB69002B01D0FB6939E01E4AFB68A6
:1019400013601E4AFB7A13701D4A7B6813601D4B9F
:1019500000221A601C4B00221A601EE0FB7ADB009A
:10196000FA681344BB6103233B7500237B75002396
:10197000BB750023FB75BB699B787B75BB691B78C6
:10198000184607F11403114A194603F0C7F8F86125
:10199000FB69002B01D0FB690AE0FB7A5A1EFA7240
:1019A000002BDBD10A4A00210A4800F02DFF034634
:1019B00018462037BD4680BD2C0800203008002086
:1019C00034080020580800205C080020651800003A
:1019D0009D170000ECF7000080B582B000AF002337
:1019E0007B600CE00B4B1A687B68DB0013441B78B0
:1019F0000121184603F0ECF87B6801337B60064B4D
:101A00001B781A467B689A42ECD8002318460837A0
:101A1000BD4680BD2C0800203008002080B586B06F
:101A200000AF78600023BB8100233B617B687B6152
:101A300007F10C031A46002144F2010000F018F8E7
:101A400000BF1837BD4680BD80B400AFBFF34F8FD5
:101A50000549054BDB6803F4E062044B1343CB609C
:101A6000BFF34F8F00BFFDE700ED00E00400FA0573
:101A700080B584B000AFF860B9607A60FFF73EFBD4
:101A800000BFFFF737F90346002BFAD10F4B1B8835
:101A90001B0443F001030E491846FFF709F90D4BEB
:101AA0001B6803F00103002B00D0FFDE074B1B88EF
:101AB0001B0443F0020308491846FFF7F9F8FFF743
:101AC000C3FF00BF1037BD4680BD00BF48020020E5
:101AD000F0F70000F0ED00E0FCF7000080B485B006
:101AE00000AF78607B689B68FB607B68DA68FB68A6
:101AF000D31A18461437BD465DF8047B704780B48E
:101B000083B000AF78600B46FB707B681A687B6817
:101B1000DB68796889880B401344FA781A707B680F
:101B2000DB685A1C7B68DA6000BF0C37BD465DF885
:101B3000047B704780B485B000AFF8600B467A60D4
:101B40007B81FB681A68FB6899687B890B44F9689C
:101B500089880B4013441A787B681A7000BF1437C9
:101B6000BD465DF8047B704780B582B000AF7860F9
:101B700039603A6800217868FFF7DCFF7B689B6872
:101B80005A1C7B689A6000BF0837BD4680BD80B58F
:101B900082B000AF78600B46FB707868FFF79EFF5D
:101BA00002467B689B889A4206D8FB78194678687B
:101BB000FFF7A5FF002300E0042318460837BD46C1
:101BC00080BD80B582B000AF786039607868FFF77B
:101BD00085FF0346002B05D039687868FFF7C4FFFE
:101BE000002300E0052318460837BD4680BD0000ED
:101BF00080B586B000AF7860104B1B78FB757968B4
:101C00000F48FFF7DEFF3861FB7D002B10D00B4B38
:101C100000221A7001220B490B4804F0D7FEF8602D
:101C2000FB68BB60BB68002B02D0B868FFF7F6FE0C
:101C30003B6918461837BD4680BD00BF65080020C7
:101C400068080020640800205800002080B584B097
:101C500000AF0346FB71FB7919461148FFF797FF68
:101C6000F860FB68002B15D10E4804F023FD0346F5
:101C700083F00103DBB2002B0CD00B490848FFF7BF
:101C8000A0FF0346002B05D101220749054804F0B7
:101C9000C3FCF860FB6818461037BD4680BD00BF26
:101CA00078080020580000206008002080B483B02D
:101CB00000AF0346FB71094997F907305B09FA79D0
:101CC00002F01F02012000FA02F241F8232000BFB7
:101CD0000C37BD465DF8047B704700BF00E100E0B3
:101CE00080B483B000AF0346FB71094997F9073010
:101CF0005B09FA7902F01F02012000FA02F2203398
:101D000041F8232000BF0C37BD465DF8047B7047C7
:101D100000E100E080B483B000AF0346FB710949E5
:101D200097F907305B09FA7902F01F02012000FAE7
:101D300002F2403341F8232000BF0C37BD465DF866
:101D4000047B704700E100E080B483B000AF03463D
:101D5000FB71094997F907305B09FA7902F01F0214
:101D6000012000FA02F2603341F8232000BF0C3753
:101D7000BD465DF8047B704700E100E080B483B0AD
:101D800000AF03463960FB7197F90730002B0BDA7F
:101D90000D49FB7903F00F03043B3A68D2B25201BC
:101DA000D2B20B441A7609E0084997F907303A682D
:101DB000D2B25201D2B20B4483F8002300BF0C37D9
:101DC000BD465DF8047B704700ED00E000E100E0F7
:101DD00080B485B000AF7860254BFB607B68002B3A
:101DE00040D0244B1A68F9687B6800BF00BF00BF71
:101DF00000BF00BF00BF00BF00BF8A422FD000BF9E
:101E000000BF00BF00BF00BF00BF00BF00BF00BFDA
:101E100000BF00BF00BF00BF00BF00BF00BF00BFCA
:101E200000BF00BF00BF00BF00BF00BF00BF00BFBA
:101E300000BF00BF00BF00BF00BF00BF00BF00BFAA
:101E400000BF00BF00BF00BF00BF00BF00BF00BF9A
:101E500000BF00BF00BF00BF00BF00BF00BF013B0D
:101E6000C3D17B6000BF1437BD465DF8047B70476B
:101E70000024F4006400002080B582B000AF7860D8
:101E8000054A7B68C2F8083507211120FFF776FF65
:101E900000BF0837BD4680BD0010014080B500AFCF
:101EA0000D4B4FF48032C3F844230B4B4FF4803278
:101EB000C3F804231120FFF747FF1120FFF7F6FEB8
:101EC000054B01221A602F20FFF782FF034B0122EE
:101ED0001A7000BF80BD00BF00100140A60900209D
:101EE00080B500AF1120FFF7FBFE0F4B4FF480329F
:101EF000C3F848230C4B4FF48032C3F808230A4B35
:101F000001225A602F20FFF763FF074B01229A60DE
:101F1000064B00221A602F20FFF75AFF044B0022C5
:101F20001A7000BF80BD00BF00100140980900205A
:101F3000A609002080B400AF034BD3F8043518463F
:101F4000BD465DF8047B70470010014080B483B04B
:101F500000AF786039607A683B68D31A23F07F431A
:101F600018460C37BD465DF8047B704780B483B0DB
:101F700000AF7860044A7B68C2F8403500BF0C3778
:101F8000BD465DF8047B70470010014080B487B007
:101F900000AF7860294B1B68002B03D1274A7B6870
:101FA000136045E07B681A68244B1B681B689A42E3
:101FB00010D8224B1B68214A126811687A6812688F
:101FC0008A1A1A601D4B1A687B68DA611B4A7B68A3
:101FD00013602DE07B681B68FB60184B1B687B61FE
:101FE000164B1B683B6109E03B691B68FA68D31A12
:101FF000FB603B697B613B69DB693B613B69002BB3
:1020000004D03B691A68FB689A42EDD33B69002B08
:1020100005D03B691A68FB68D21A3B691A607B6875
:10202000FA681A607B683A69DA617B697A68DA6112
:1020300000BF1C37BD465DF8047B70479409002043
:1020400080B586B000AF7860294B1B68FB60284BD9
:102050001B687B617B693B6108E03A697B689A4257
:1020600008D03B697B613B69DB693B613B69002BC5
:10207000F3D100E000BF3B69002B01D1002333E026
:102080007A693B699A4214D1194B1B68DB69184A7B
:102090001360174B1B68002B0BD1164B01229A6063
:1020A000154B00221A60154B01221A702F20FFF7E2
:1020B0008FFE3B691B68BB603B69DA697B69DA614B
:1020C0007B69DB693B613B69002B05D03B691A6882
:1020D000BB681A443B691A60054B1B68FA689A4250
:1020E00014BF01230023DBB218461837BD4680BD5C
:1020F000940900200010014098090020A709002041
:1021000080B500AF1120FFF705FE00BF80BD80B590
:1021100000AF1420FFF7FEFD00BF80BD80B582B088
:1021200000AF78607B685B697A689269104698476F
:1021300000BF0837BD4680BD80B584B000AF2B4BD3
:102140001B68002B4ED000237B60FFF7F3FE024696
:10215000274B1B6819461046FFF7F8FEB860234B63
:102160001B68FB601DE0FB681A68BB689A421CD8BC
:10217000FB681B68BA68D31ABB60FB681B687A6887
:1021800013447B60FB683B60FB68DB69FB603B687A
:102190001B7C002B05D03B6800221A743868FFF7BF
:1021A000BDFFFB68002BDED100E000BF114B1A78A9
:1021B000114B1B789A420CD10F4B1B780133DAB2CA
:1021C0000D4B1A700C4B1B78022B02D10A4B0022CC
:1021D0001A70094B1B781946084A7B6842F821306F
:1021E000FFF795FF00BF1037BD4680BD9409002062
:1021F00098090020A4090020A50900209C090020BE
:1022000080B483B000AF7860194B1A78194B1B78F3
:102210009A4223D0164B1B780133DAB2144B1A7052
:10222000134B1B78022B02D1114B00221A70104B5A
:102230001B781A46104B53F822207B681A607B6883
:102240001A680E4B1B6813440C4A13600B4B1B6837
:1022500023F07F43094A1360012303E07B680022D7
:102260001A60002318460C37BD465DF8047B7047A2
:10227000A4090020A50900209C090020980900203D
:1022800080B489B000AFF860B9607A600023FB6168
:1022900038E0214B1B68BB61BB691A68FB689A4236
:1022A00006D9BB691A68FB68D21ABB691A602DE0AF
:1022B000BB691B68FA68D31AFB60BB691B68FA69C3
:1022C0001344FB61BB6900221A60134B1B687B61DE
:1022D000BB69DB69104A1360BB69DB68002B11D056
:1022E000BA68FB69134423F07F42BB695A60BB693B
:1022F000DA68BB699A607B681A68BB69DA617B68D7
:102300007A691A60044B1B68002BC2D100BF2437C6
:10231000BD465DF8047B70479409002080B588B005
:1023200000AF78600023FB77654B1B687B61A9E0F9
:102330007B68002B05D07B68BB61BB69DB697B6078
:1023400060E0604B1B781A4613465B001344DB00C9
:102350005C4A134404333B615A4B1B780133DAB2B5
:10236000584B1A70574B1A78564B9B789A4202D1A9
:10237000544B00221A703B695B68BB613B691B7858
:10238000022B04D0032B1AD0012B1ED01CE03B697A
:102390005B681846FFF754FE0346002B01D001236B
:1023A000FB77BB6900221A746CE0454B1B68FB602D
:1023B000FB6800221A74FB68DB69414A1360404BDA
:1023C0001B68002BF1D15DE05CE000BFBB691B7CAA
:1023D000002B00D056E03B699A68BB695A603B69A4
:1023E000DA68BB699A603B691A69BB69DA603B6964
:1023F0005A69BB699A61344B1B78002B02D0BB69C8
:1024000000225A60BB695A68304B1B68D31A23F00C
:102410007F432F4A93420ED8BB695A682B4B1B68E7
:1024200019461046FFF792FD0246BB699B681A44A5
:10243000BB691A6017E0254B1A68BB695B681946CF
:102440001046FFF783FDB860BB699A68BB689A4283
:1024500006D9BB699A68BB68D21ABB691A6002E0E8
:10246000BB6900221A60BB6900225A60BB69002266
:102470009A60BB6901221A74BB690022DA61B869EB
:10248000FFF784FD7B68002B7FF452AF0D4B1A7869
:102490000C4B5B789A427FF44BAFFB7F002B04D14F
:1024A000074B1A687B699A4201D0012300E00023A0
:1024B00003F00103DBB218462037BD4680BD00BFE4
:1024C0009409002088080020A7090020980900200E
:1024D000FEFF7F0090B589B000AF7860274B1B6886
:1024E000002B44D0254B1B681B68FB61FFF722FDC6
:1024F000B861234B1B687B617969B869FFF726FDDA
:10250000034603333B611F4B1B7883F00103DBB2AF
:10251000002B01D0FFF7C2FC3A69FB69934238BF38
:1025200013467A6913447B617B6923F07F437B61A7
:102530007869FFF71BFDFFF7FDFCF860B969F868E3
:10254000FFF704FD0346DC1CB9697869FFF7FEFC60
:1025500003469C420DD9FFF7EDFC03461846FFF7F2
:1025600005FD2F20FFF734FCFFF7CAFD01E0FFF760
:10257000B7FC00BF2437BD4690BD00BF94090020C2
:1025800098090020A609002080B586B000AF00237E
:102590007B600023FB75164B1B683B61154B1B686A
:1025A000FB603B461846FFF72BFE0346FB72FB7AA7
:1025B000002B07D03B683A1D39691846FFF760FECB
:1025C0000123FB757B681846FFF7A8FE0346002B26
:1025D00001D00123FB75FB7D002B02D0F868FFF7CB
:1025E00079FF054B00221A7000BF1837BD4680BD29
:1025F0009809002094090020A709002080B483B026
:1026000000AF0346FB71044AFB79537000BF0C37DF
:10261000BD465DF8047B70478808002080B485B013
:1026200000AF7860134B5B780133FB73114B9B78E1
:10263000FA7B9A4201D10023FB730E4B1B78FA7B85
:102640009A4201D100230EE07B68FA7B1A70094B95
:102650005B781A4613465B001344DB00054A1344BB
:102660000433BB60BB6818461437BD465DF8047B75
:10267000704700BF8808002080B588B000AFF860C0
:10268000B9607A603B600023FB61002000F06CF9C8
:1026900007F117031846FFF7C1FFB861BB69002BAC
:1026A00002D10423FB6117E0BB6901221A70BB69E8
:1026B000FA685A60FFF73EFC0246BB699A60BB6944
:1026C000BA68DA60BB697A681A61BB693A685A61AC
:1026D000FB7D1846FFF792FF002000F04FF9FB69E1
:1026E000002B01D1FFF713FDFB6918462037BD46CB
:1026F00080BD80B586B000AF78600B46FB700023CC
:102700007B61002000F030F907F10F031846FFF756
:1027100085FF38613B69002B02D104237B6109E00E
:102720003B69FA781A703B697A685A60FB7B1846F5
:10273000FFF764FF002000F021F97B69002B01D135
:10274000FFF7E5FC7B6918461837BD4680BD0000E1
:1027500080B500AF0D4B0022C3F840210B4B002287
:10276000C3F84421094B0022C3F84821074B00223B
:10277000C3F84C21054B0022C3F80021034B002273
:10278000C3F80421FFF7D8FC00BF80BD0010014052
:1027900080B500AFFFF7F8FE00BF80BD80B500AF89
:1027A000FFF79EFB134B00221A70124B00225A7047
:1027B000104B0B229A70104B00221A600F4B002214
:1027C0001A700F4B00221A701420FFF7BDFA072170
:1027D0001420FFF7D3FA1420FFF768FA0020FFF760
:1027E0004BFBFFF7A7FB0246064B1A600023184677
:1027F00080BD00BF8808002094090020A4090020A3
:10280000A50900209809002080B487B000AFF860C7
:102810000B467A60FB72154B9B78002B01D1082385
:102820001DE07B68002B01D1072318E0FB68002B1B
:1028300001D1072313E0FB681B681B7C002B01D030
:1028400008230CE0FB681B687B617B6900221A741B
:102850007B69FA7A5A747B697A685A610023184650
:102860001C37BD465DF8047B704700BF8808002018
:1028700080B586B000AFF860B9607A60FB687B61B4
:10288000144B9B78002B01D108231EE0FB68002B22
:1028900001D1082319E0BB68042B01D8072314E0F9
:1028A0007B695B69002B01D108230EE07B695B7CAF
:1028B000012B01D1BB6800E000233B617B683A69D2
:1028C000B9687869FFF7D8FE034618461837BD4641
:1028D00080BD00BF8808002080B584B000AF78605C
:1028E0007B68FB600D4B9B78002B01D1082310E027
:1028F0007B68002B03D0FB685B69002B01D10823A8
:1029000007E0FB6800221A740221F868FFF7F1FE65
:10291000034618461037BD4680BD00BF880800201A
:1029200080B400AF72B6054B1B680133034A1360D5
:1029300000BFBD465DF8047B704700BFA8090020BA
:1029400080B400AF074B1B68013B064A1360054B80
:102950001B68002B00D162B600BFBD465DF8047B4A
:10296000704700BFA809002080B582B000AF786032
:10297000FFF7D6FF00BF0837BD4680BD80B582B0E7
:1029800000AF0346FB71FFF7DBFF00BF0837BD4612
:1029900080BD80B483B000AF78600B46FB707B686D
:1029A000DA68FB787968098A01FB03F31344184657
:1029B0000C37BD465DF8047B704780B483B000AF30
:1029C000786039603B687A68D2689B1A7A68128AA4
:1029D000B3FBF2F3DBB218460C37BD465DF8047B5F
:1029E000704780B485B000AF78607B68002B01D160
:1029F0000E231DE07B689B681A467B685B68D31AD0
:102A0000FB737B681B687A6852681A6006E07B6813
:102A10001A681368591C1160FA7B1A70FB7B5A1EE6
:102A2000FA73002BF3D17B681B6800221A71002314
:102A300018461437BD465DF8047B704780B584B0F6
:102A400000AF78600023FB600020FFF78DFF7B68FC
:102A50001B681A687B685B689A421DD97B681B6893
:102A60001A68013A1A601B681B7819467868FFF7E4
:102A700090FFF8607B689B681A467B681B681B6840
:102A8000D31AFB727B681B681B79FA7A9A4203D9C6
:102A90007B681B68FA7A1A710020FFF76FFFFB68EA
:102AA00018461037BD4680BD90B585B000AF786040
:102AB00039603B68FB600020FFF756FF7B681B68AE
:102AC0001C68621C1A60F9687868FFF776FF034695
:102AD00023700020FFF752FF00BF1437BD4690BDA2
:102AE00080B582B000AF78607B689B68002B0CD00B
:102AF0007B685B697A6810697A6811687A6892689D
:102B000098477B6800229A6000E000BF0837BD4606
:102B100080BD0EB480B585B000AF7860FB69002B36
:102B20000CD00023FB6007F12003FB6007F10C03CE
:102B30001A46F969786800F0A7F900E000BF143779
:102B4000BD46BDE8804003B0704780B582B000AF9D
:102B500078600B46FB707B681A687B689B68581C22
:102B6000796888601344FA781A707B689A687B6881
:102B70005B689A4202D37868FFF7B2FF00BF08375C
:102B8000BD4680BD80B586B000AFF860B9607A60A0
:102B90003B6000237B613B6803F00103002B21D0E5
:102BA0000AE0BB680133BB607B6901337B61FB7C5E
:102BB0001946F868FFF7C9FFBB681B78FB74FB7CFC
:102BC000002BEED106E07B68013B7B602021F8689A
:102BD000FFF7BBFF7A687B699A422BD97B68002B91
:102BE000F1D127E0BB68002B0BD0B8680BF044FB99
:102BF000786106E07B68013B7B602021F868FFF785
:102C0000A4FF7A687B699A420ED97B68002BF1D1C8
:102C10000AE0BB680133BB607B6901337B61FB7CED
:102C20001946F868FFF791FFBB681B78FB74FB7CC3
:102C3000002BEED100BF1837BD4680BD80B588B0EF
:102C400000AFF860B9607A603B60BB68FB6101234C
:102C5000BB6107E0FA697B68B2FBF3F3FB61BB6918
:102C60000133BB61FA697B689A42F3D23A68BB6967
:102C70009A4201D93B68BB61FB6A03F00103002B58
:102C80001FD1BB6A002B1CD0FB6A03F00203002B90
:102C900005D03B68002B02D13023FB7501E02023D7
:102CA000FB7507E0BB6A013BBB62FB7D1946F86818
:102CB000FFF74BFFBB6A002B03D0BA69BB6A9A428D
:102CC000F0D30123FB613B68012B03D93B68013B37
:102CD0003B6009E0BA68FB69B2FBF3F33B613A6918
:102CE0007B689A4200D205E0FB697A6802FB03F335
:102CF000FB61E8E7BA68FB69B2FBF3F33B613B6950
:102D0000FA6902FB03F3BA68D31ABB60154A3B6940
:102D100013441B781946F868FFF717FFFA697B68B8
:102D2000B2FBF3F3FB61FB69002BE3D1FB6A03F019
:102D30000103002B11D0BB6A002B0ED006E0BB6A4A
:102D4000013BBB622021F868FFF7FFFEBB6A002B46
:102D500003D0BA69BB6A9A42F1D300BF2037BD469F
:102D600080BD00BF14F8000080B588B002AFF860E5
:102D7000B9607A603B60BB68002BB8BF5B423B61C7
:102D800001237B6107E07B683A6992FBF3F33B61C7
:102D90007B6901337B617B683A699A42F3DA3A686E
:102DA0007B699A4201D93B687B613B6A002B0AD060
:102DB000BB68002B04DB7B6A03F00403002B02D00A
:102DC0003B6A013B3B627B6A03F00203002B02D0AB
:102DD0003B68002B16D07B6A03F00103002B11D156
:102DE0003B6A002B0ED006E03B6A013B3B62202190
:102DF000F868FFF7AAFE3B6A002B03D07A693B6AAA
:102E00009A42F1D3BB68002B07DABB685B42BB6018
:102E10002D21F868FFF799FE08E07B6A03F00403B0
:102E2000002B03D02B21F868FFF78FFE7B6A03F09D
:102E30000203002B19D07B6A03F00103002B14D18D
:102E40003B68002B11D13B6A002B0ED006E03B6A99
:102E5000013B3B623021F868FFF777FE3B6A002BAD
:102E600003D07A693B6A9A42F1D3B9687B6A0193CD
:102E70003B6A00933B687A68F868FFF7DFFE00BFA3
:102E80001837BD4680BD000080B58EB002AFF86037
:102E9000B9607A60BB68002B00F0E881BB681B78E2
:102EA00087F82F30BB680133BB6097F82F30002BB9
:102EB00000F0D38197F82F30252B40F0C2810023FA
:102EC0003B620123BB62BB681B7887F82F3097F801
:102ED0002F302D2B04D0302B0AD02B2B10D017E005
:102EE0003B6A43F001033B62BB680133BB6012E005
:102EF0003B6A43F002033B62BB680133BB600AE0FC
:102F00003B6A43F004033B62BB680133BB6002E0F1
:102F10000023BB6200BFBB6A002BD4D10023FB613E
:102F200097F82F302A2B0CD17B681B68191D7A6803
:102F300011601B68FA691344FB61BB680133BB6015
:102F40001AE0BB681B7887F82F3097F82F302F2BAB
:102F500012D997F82F30392B0ED8BB680133BB60DC
:102F6000FA6913469B0013445B001A4697F82F300A
:102F70001344303BFB61D3E700237B62BB681B78C3
:102F800087F82F3097F82F302E2B1DD1BB680133D7
:102F9000BB60BB681B7887F82F3097F82F302F2B3A
:102FA00012D997F82F30392B0ED8BB680133BB608C
:102FB0007A6A13469B0013445B001A4697F82F3039
:102FC0001344303B7B62E4E7BB681B7887F82F3003
:102FD00097F82F306C2B03D097F82F30682B07D140
:102FE000BB680133BB60BB681B7887F82F30EFE705
:102FF00097F82F30253B532B00F21E8101A252F887
:1030000023F000BF2F3200003932000039320000B7
:103010003932000039320000393200003932000004
:1030200039320000393200003932000039320000F4
:1030300039320000393200003932000039320000E4
:1030400039320000393200003932000039320000D4
:1030500039320000393200003932000039320000C4
:1030600039320000393200003932000039320000B4
:1030700039320000393200003932000039320000A4
:103080003932000039320000393200003932000094
:103090003932000039320000393200003932000084
:1030A0003932000039320000393200003932000074
:1030B0003932000039320000393200003932000064
:1030C0003932000039320000393200003932000054
:1030D000BB310000393200003932000039320000C3
:1030E0003932000039320000393200003932000034
:1030F0003932000039320000393200005531000009
:1031000073310000393200003932000039320000DA
:1031100039320000733100003932000039320000CA
:1031200039320000393200003932000039320000F3
:10313000FB3100003932000039320000DF3100007D
:103140003932000097310000393200003932000076
:10315000BB3100007B681B68191D7A6811601B6811
:10316000BB62BB6AFB76FB7E1946F868FFF7EDFC95
:1031700063E07B681B68191D7A6811601B68BB627D
:103180003B6A0193FB6900937B6A0A22B96AF8687B
:10319000FFF7EAFD51E07B681B68191D7A68116032
:1031A0001B68BB62B96A3B6A0193FB6900937B6A47
:1031B0000A22F868FFF742FD3FE07B681B68191D93
:1031C0007A6811601B68BB62B96A3B6A0193FB694C
:1031D00000937B6A1022F868FFF730FD2DE07B68D2
:1031E0001B68191D7A6811601B687B613B6AFA696C
:1031F0007969F868FFF7C6FC1FE07B681B68191D3A
:103200007A6811601B68BB623021F868FFF79DFC8B
:103210007821F868FFF799FCB96A00230193082325
:10322000009308231022F868FFF708FD05E0252128
:10323000F868FFF78AFC00E000BFBB680133BB60A1
:1032400005E097F82F301946F868FFF77EFCBB6859
:103250001B78002B7FF422AE00E000BFFB681B7BD5
:10326000002B04D0F868FFF73BFC00E000BF3037CC
:10327000BD4680BD90B486B000AF786039607B6891
:103280003A6853E8004F04EB020043E8000191F074
:10329000000FF6D17C613861F9603B691846183738
:1032A000BD4690BC704790B486B000AF786039607E
:1032B0007B683A6853E8004FA4EB020043E8000142
:1032C00091F0000FF6D17C613861F9603B691846D6
:1032D0001837BD4690BC704780B582B000AF7860AB
:1032E0007868FFF77EFB034618460837BD4680BD69
:1032F00080B58AB000AF786039607B681B8A043B78
:10330000FB613A68FB691344DA1CFB69B2FBF3F317
:10331000FB767868FFF792FB78617B69002B01D11F
:10332000002337E07B6900221A717B6901225A7100
:10333000FB699AB27B69DA807B697B62FB7E013B29
:103340003B617B6A7A681A6000233B621DE0786803
:10335000FFF774FBF860FB68002B0ED07B695B798C
:103360000133DAB27B695A717B6AFA681A60FB68CA
:103370007A681A60FB687B6204E0786900F00EF8F6
:10338000002307E03B6A01333B623A6A3B699A4299
:10339000DDD37B6918462837BD4680BD80B58AB02D
:1033A00000AF78607B68FB61FB695B79FB767B68CB
:1033B0003B62FB7E013B7B6100237B6205E03B6A55
:1033C0001B683B627B6A01337B627A6A7B699A4243
:1033D000F5D33B6A1B683B617B683B6200237B62E1
:1033E0000BE03B6A1B68FB60396A3869FFF75CFBDE
:1033F000FB683B627B6A01337B62FA7E7B6A9A429E
:10340000EFD800BF2837BD4680BD80B584B000AF7F
:1034100078607B68FB60FB68043301211846FFF786
:1034200029FF00BF1037BD4680BD80B586B000AF14
:1034300078607B687B617B69043301211846FFF764
:1034400032FF0346FB6007F10C033B613B691B78CD
:10345000002B02D17868FFF7A1FF00BF1837BD46E7
:1034600080BD80B58CB000AFF860B9607A603B6019
:10347000FB68BB61BB69DB887B61FB68FB623B6807
:103480001A1D7B69B2FBF3F3BB623B6804337A69B4
:10349000B3FBF2F2796901FB02F29B1A7B623A6894
:1034A0007B681A447B691344DA1C7B69B2FBF3F333
:1034B000FB7405E0FB6A1B68FB62BB6A013BBB62F5
:1034C000BB6A002BF6D100233B627A697B6AD31A70
:1034D000FB61FA697B68934228BF1346FB612DE0CC
:1034E00097F83830002B0BD0BA683B6AD018FA6ACC
:1034F0007B6A13440433FA6919460AF0A9FD0AE00D
:10350000FA6A7B6A1344181DBA683B6A1344FA6965
:1035100019460AF09DFD00237B62FB6A1B68FB6273
:103520007A68FB69D31A7B603A6AFB6913443B6291
:103530007A697B68934228BF1346FB617B68002B46
:10354000CED100BF3037BD4680BD80B586B002AF5A
:10355000F860B9607A603B60002300933B687A684A
:10356000B968F868FFF77DFF00BF1037BD4680BD22
:1035700080B586B002AFF860B9607A603B60012325
:1035800000933B687A68B968F868FFF76AFF00BF84
:103590001037BD4680BD80B586B000AFF860B96019
:1035A0007A6000237B6109E0BB685A1CBA601B7813
:1035B0001846FEF74BFB7B6901337B617A697B68B8
:1035C0009A42F1DB7B6818461837BD4680BD80B54E
:1035D00084B000AFF860B9607A6000BFB868FEF7E9
:1035E00007FB0346052BF9D0012318461037BD46CB
:1035F00080BD000080B483B000AF0346FB71094971
:1036000097F907305B09FA7902F01F02012000FAEE
:1036100002F241F8232000BF0C37BD465DF8047B61
:10362000704700BF00E100E080B483B000AF034604
:10363000FB71094997F907305B09FA7902F01F021B
:10364000012000FA02F2603341F8232000BF0C375A
:10365000BD465DF8047B704700E100E080B483B0B4
:1036600000AF03463960FB7197F90730002B0BDA86
:103670000D49FB7903F00F03043B3A68D2B25201C3
:10368000D2B20B441A7609E0084997F907303A6834
:10369000D2B25201D2B20B4483F8002300BF0C37E0
:1036A000BD465DF8047B704700ED00E000E100E0FE
:1036B00080B582B000AF03460A46FB711346BB716A
:1036C000BA7997F9073011461846FFF7C7FF97F9FF
:1036D00007301846FFF7A8FF97F907301846FFF79D
:1036E00089FF00BF0837BD4680BD80B483B000AFFE
:1036F00078600B46FB70FB787A68134401221A60ED
:1037000000BF0C37BD465DF8047B704780B485B0C0
:1037100000AF78600B467B807B887A681344002278
:103720001A607B887A6813441B68FB60FB6800BFE3
:103730001437BD465DF8047B704780B483B000AF9A
:1037400078600B467B807B887A6813441B68002B6B
:1037500014BF01230023DBB218460C37BD465DF8C9
:10376000047B704780B483B000AF786039607B68B9
:103770003A68C3F8042300BF0C37BD465DF8047BEC
:10378000704780B483B000AF786039607B683A6876
:10379000C3F8082300BF0C37BD465DF8047B7047B3
:1037A00080B483B000AF78607B680622C3F8002540
:1037B00000BF0C37BD465DF8047B704780B485B010
:1037C00000AFF860B9607A60FB68BA68C3F8082592
:1037D000FB687A68C3F80C2500BF1437BD465DF856
:1037E000047B704780B483B000AF786039607B6839
:1037F0003A68C3F8242500BF0C37BD465DF8047B4A
:10380000704780B485B000AF78607B68D3F8C4346B
:10381000FB607B68FA68C3F8C424FB681846143759
:10382000BD465DF8047B704780B483B000AF78601C
:103830000B46FB70FA787B68C3F8882500BF0C370D
:10384000BD465DF8047B704780B485B000AFF8607A
:10385000B9601346FB71BA68FB68C3F84425FA796E
:10386000FB68C3F8482500BF1437BD465DF8047BEC
:10387000704780B485B000AFF860B9601346FB7143
:10388000BA68FB68C3F83425FA79FB68C3F83825B1
:1038900000BF1437BD465DF8047B704780B483B029
:1038A00000AF786039607B683A68C3F8002200BFD7
:1038B0000C37BD465DF8047B704780B483B000AF21
:1038C00078607B68D3F84C3518460C37BD465DF8F8
:1038D000047B704780B483B000AF78607B68D3F816
:1038E0003C3518460C37BD465DF8047B704780B404
:1038F00083B000AF78607B680122C3F8502500BF19
:103900000C37BD465DF8047B704780B483B000AFD0
:1039100078607B680022C3F8502500BF0C37BD4695
:103920005DF8047B704780B483B000AF78607B683B
:103930000122C3F8402500BF0C37BD465DF8047B6B
:10394000704780B483B000AF78607B680022C3F812
:10395000402500BF0C37BD465DF8047B704780B43E
:1039600085B000AF78607B681B0BFB7397F90F3055
:1039700018461437BD465DF8047B704780B483B0A9
:1039800000AF78607B6803F06043B3F1005F0CBF69
:1039900001230023DBB218460C37BD465DF8047BDB
:1039A000704780B483B000AF78604FF0A0431846F2
:1039B0000C37BD465DF8047B704780B584B000AF1E
:1039C00078603B1D1846FFF7ECFFF8607B6801222A
:1039D00002FA03F31946F86800F03CF800BF10370C
:1039E000BD4680BD80B584B000AF78603B1D1846F1
:1039F000FFF7D7FFF8607B68012202FA03F319464C
:103A0000F86800F036F800BF1037BD4680BD80B5BD
:103A100084B000AF78603B1D1846FFF7C2FFF86026
:103A2000F86800F00AF802467B6822FA03F303F014
:103A3000010318461037BD4680BD80B483B000AF87
:103A400078607B68D3F8103518460C37BD465DF8B2
:103A5000047B704780B483B000AF786039607B68C6
:103A60003A68C3F8082500BF0C37BD465DF8047BF3
:103A7000704780B483B000AF786039607B683A6883
:103A8000C3F80C2500BF0C37BD465DF8047B7047BA
:103A900080B485B000AF7860254BFB607B68002B5D
:103AA00040D0244B1A68F9687B6800BF00BF00BF94
:103AB00000BF00BF00BF00BF00BF8A422FD000BFC1
:103AC00000BF00BF00BF00BF00BF00BF00BF00BFFE
:103AD00000BF00BF00BF00BF00BF00BF00BF00BFEE
:103AE00000BF00BF00BF00BF00BF00BF00BF00BFDE
:103AF00000BF00BF00BF00BF00BF00BF00BF00BFCE
:103B000000BF00BF00BF00BF00BF00BF00BF00BFBD
:103B100000BF00BF00BF00BF00BF00BF00BF013B30
:103B2000C3D17B6000BF1437BD465DF8047B70478E
:103B30000024F4006400002080B485B000AF7860F9
:103B40000323FB607B6803F00203002B02D048F2E2
:103B50000123FB607B6803F00403002B02D048F2D2
:103B60000223FB60FB6818461437BD465DF8047BF2
:103B7000704780B584B000AF78604FF0A0427B689A
:103B80001B6803F5E07340F20C6142F823104FF01C
:103B9000A0427B685B6803F5E07340F20C6142F879
:103BA00023107B681B681846FFF707FF7B685B687C
:103BB0001846FFF702FF4FF0A0427B681B6803F531
:103BC000E07340F20D6142F823104FF0A0427B6891
:103BD0005B6803F5E07340F20D6142F823100420A6
:103BE000FFF756FF0023FB601EE07B685B6818460A
:103BF000FFF70DFF0346002B03D0FB68002B17D106
:103C000024E07B681B681846FFF7ECFE0420FFF7F2
:103C10003FFF7B681B681846FFF7CFFE0420FFF7C5
:103C200037FFFB680133FB60FB68082BDDDD00E03C
:103C300000BF7B685B681846FFF7D4FE0420FFF7DF
:103C400027FF7B685B681846FFF7B7FE1037BD4655
:103C500080BD000080B588B000AFF860B9607A60C0
:103C60003B60FB681B791A4613469B001344DB003C
:103C7000344A1344FB61FB6993F82230002B03D0D4
:103C80000823BB61BB6959E0FB697A681A60FB696C
:103C90003A685A60FB6900229A60FB69002283F847
:103CA0002520FB69002283F82420BB689A7BFB69EE
:103CB00083F82720BB685B7B002B02D0B868FFF736
:103CC00058FF4FF0A042BB681B6803F5E07340F259
:103CD0000C6142F823104FF0A042BB685B6803F50B
:103CE000E07340F20C6142F82310FB681B687B61B3
:103CF000BB681968BB685B681A467869FFF75EFDA8
:103D0000BB689B6819467869FFF76CFDFB691B6807
:103D1000002B0CD0FB681B681846FFF720FE0346FB
:103D20001A46BB681B7B19461046FFF7C1FCFB69AE
:103D3000012283F822200023BB61BB69184620378B
:103D4000BD4680BDAC09002080B584B000AF78606E
:103D50007B681B791A4613469B001344DB00084A14
:103D60001344FB607B681B68BB60B868FFF718FDF5
:103D7000FB68022283F8222000BF1037BD4680BDB9
:103D8000AC09002080B582B000AF786039603B6834
:103D900003F00103002B03D07868FFF7A8FD02E0D1
:103DA0007868FFF7B2FD3B6803F00203002B03D0F5
:103DB0007868FFF7B8FD02E07868FFF7C2FD00BF42
:103DC0000837BD4680BD000080B588B000AFF86000
:103DD000B9607A603B600023FB610823FB764FF4F7
:103DE00082733B837B685B681846FFF7C7FD034619
:103DF00083F00103DBB2002B03D01023FB61FB69CE
:103E000071E14FF0FF31B868FFF7BBFCFB6893F836
:103E10002430DBB2002B09D0FB689B681946B868D8
:103E2000FFF7A0FC1123FB61FB695CE13B6803F039
:103E30000403002B06D13B6803F01003002B01D1D3
:103E4000012300E0002303F00103DAB2FB6883F8EA
:103E50002420FB687A680C3307CA83E807003B68B4
:103E600003F01003002B14BF01230023DAB2FB6818
:103E700083F825207B685B781946B868FFF7D4FC87
:103E80004FF48271B868FFF741FC4FF49271B86843
:103E9000FFF73CFC3968B868FFF774FF7B681B7854
:103EA000032B00F2C88001A252F823F0AF3F0000BC
:103EB000074000005D3F0000BD3E00007B689B683E
:103EC0001846FFF75BFD034683F00103DBB2002BCE
:103ED00003D01023FB61FB6905E14FF48071B868E2
:103EE000FFF7DCFC7B6859687B689B781A46B868EA
:103EF000FFF7AAFC4FF4A871B868FFF707FC4FF46E
:103F0000B071B868FFF702FC4FF4A471B868FFF70E
:103F1000FDFB2021B868FFF7E8FB0821B868FFF730
:103F2000E4FB00BF4FF4A871B868FFF706FC034636
:103F300083F00103DBB2002BF4D14FF4A871B86811
:103F4000FFF7E4FB7B6899687B68DB781A46B86802
:103F5000FFF77AFCFB68664A9A606FE07B685968F5
:103F60007B689B781A46B868FFF76EFC7B689B6895
:103F70001846FFF703FD034683F00103DBB2002B75
:103F800003D01023FB61FB69ADE07B6899687B6817
:103F9000DB781A46B868FFF76CFC4FF48451B868B8
:103FA000FFF77CFCFB6840F202229A6046E07B68E7
:103FB00059687B689B781A46B868FFF745FC3B68F0
:103FC00003F02003002B10D04FF48071B868FFF786
:103FD00065FCFB68464A9A604FF4A471B868FFF725
:103FE00095FB4FF4A4733B8308E04FF40071B8686D
:103FF000FFF754FCFB6840F202229A602021B86867
:10400000FFF773FB1AE07B6859687B689B781A4658
:10401000B868FFF72EFC4FF48051B868FFF73EFCFC
:10402000FB6840F202229A600023FB762021B868E8
:10403000FFF75BFB02E00723FB6100BF3B6803F077
:104040000803002B08D17B681B78032B04D0FB7E70
:104050001946B868FFF749FBFB681B68002B27D09F
:104060003B6803F00403002B03D0FB684FF400729D
:104070009A60FB689B681946B868FFF773FB31E0EC
:104080004FF49271B868FFF758FB0346002B0FD02E
:104090004FF49271B868FFF739FB2021B868FFF739
:1040A00024FB1421B868FFF720FB4FF482733B8395
:1040B0003B8B1946B868FFF740FB034683F00103CA
:1040C000DBB2002BDCD1B868FFF79BFB7861FB68A3
:1040D000002283F824207B69002B03D07869FFF746
:1040E0002BFDF861FB6918462037BD4680BD00BF37
:1040F0000002040080B586B000AFF860B9607A6055
:1041000000237B61FB681B791A4613469B0013440E
:10411000DB00084A13443B61FB6819687B68BA6896
:104120003869FFF751FE78617B6918461837BD463C
:1041300080BD00BFAC09002080B588B000AFF8603A
:104140007A601A460B46FB721346BB7207F11403E2
:1041500000221A605A609A60FB7A7B75BB7ABB7545
:104160007B68BB6197F82830002B01D0202200E04B
:10417000002207F114031946F868FFF7BBFF034656
:1041800018462037BD4680BD80B588B000AFF860C6
:104190007A601A460B46FB721346BB7207F1140392
:1041A00000221A605A609A6001233B75FB7A7B7586
:1041B000BB7ABB757B68BB6107F11403002219460B
:1041C000F868FFF797FF034618462037BD4680BDC5
:1041D00080B588B000AF786039604FF4927178682C
:1041E000FFF7ABFA0346002B27D04FF492717868A3
:1041F000FFF78CFA4FF482717868FFF79EFA034656
:1042000083F00103DBB2002B17D03B689B68194693
:104210007868FFF7B6FA3B6802229A603B689B68B1
:1042200019467868FFF79EFA20217868FFF75DFA53
:1042300014217868FFF759FAC8E04FF48271786862
:10424000FFF77BFA0346002B54D04FF48271786855
:10425000FFF75CFA3A6807F110030C3207CA83E8EB
:1042600007003B6893F82330002B1FD03B681B7B73
:10427000012B05D17868FFF72DFB0346DBB204E084
:104280007868FFF71AFB0346DBB2BB743B681B7B05
:10429000022B05D17868FFF71DFB0346DBB204E073
:1042A0007868FFF70AFB0346DBB2FB744FF4B0718A
:1042B0007868FFF72BFA4FF4AE717868FFF726FAAB
:1042C0003B6893F8253083F00103DBB2002B04D167
:1042D0003B6893F82330002B4ED000217868FFF71D
:1042E000DDFA3B6800229A604FF0FF317868FFF7F3
:1042F00048FA41E04FF4A4717868FFF707FA3B6889
:104300001B7B002B1BD13A6807F110030C3207CA44
:1043100083E807003B6893F8253083F00103DBB2A4
:10432000002B29D000217868FFF7B8FA3B680022FB
:104330009A604FF0FF317868FFF723FA1CE04FF4E2
:1043400000717868FFF7AAFA3B6840F202229A608F
:104350004FF0FF317868FFF714FA3B689B68194605
:104360007868FFF7FFF908217868FFF7BEF9202188
:104370007868FFF7BAF929E07868FFF742FAF86140
:10438000FB6903F00203002B02D001233B7309E019
:10439000FB6903F00403002B02D002233B7301E00E
:1043A00000233B733B6893F8253083F00103DBB2B5
:1043B000002B03D03B68002283F824203B681B6855
:1043C0003A68516807F10C02104698472037BD46FD
:1043D00080BD000080B500AF03494FF04020FFF7DB
:1043E000F7FE00BF80BD00BFAC09002080B582B0E1
:1043F00000AF0346FB80FB88184600F024F8034614
:104400001B68012B0CBF01230023DBB218460837C1
:10441000BD4680BD80B584B000AF0346FB80FB88FD
:10442000184600F010F803461A4600231360FB8874
:10443000184600F008F803461B68FB60FB6800BFE5
:104440001037BD4680BD80B483B000AF0346FB800B
:10445000FB8803F1804303F5C04318460C37BD4683
:104460005DF8047B7047000080B483B000AF7860D3
:10447000044A7B68C2F8043300BF0C37BD465DF8C0
:10448000047B70470060004080B483B000AF786068
:10449000044A7B68C2F8083300BF0C37BD465DF89C
:1044A000047B70470060004080B483B000AF786048
:1044B000054BD3F804237B68134018460C37BD46E0
:1044C0005DF8047B704700BF0060004080B483B09B
:1044D00000AF78600949094A7B6803F5A27352F876
:1044E000233043F001027B6803F5A27341F82320D7
:1044F00000BF0C37BD465DF8047B7047006000408C
:1045000080B483B000AF78600949094A7B6803F53D
:10451000A27352F8233023F001027B6803F5A273E3
:1045200041F8232000BF0C37BD465DF8047B70477F
:104530000060004080B485B000AFF860B9601346F9
:10454000FB711649154AFB6803F5A27352F8233034
:1045500023F4473323F44073FA6802F5A27241F85A
:1045600022300E480D4AFB6803F5A27352F823204F
:10457000BB681B0203F4F851FB791B0403F44033BE
:104580000B431A43FB6803F5A27340F8232000BFD6
:104590001437BD465DF8047B704700BF00600040E3
:1045A00080B483B000AF7860074A7B6803F5A273DC
:1045B00052F823301B0A03F01F0318460C37BD4680
:1045C0005DF8047B704700BF0060004080B483B09A
:1045D00000AF7860074A7B6803F5A27352F8233076
:1045E0001B0C03F00303DBB218460C37BD465DF825
:1045F000047B70470060004080B483B000AF7860F7
:104600004FF0A04318460C37BD465DF8047B704759
:1046100080B584B000AF7860084611461A4603465C
:10462000FB700B46BB7013467B703B1D1846FFF7B3
:10463000E3FFF8607A68F978BB785B0019437B7810
:104640009B0019433B7E1B0219433B7F1B0419430C
:10465000FB6802F5E07243F8221000BF1037BD4638
:1046600080BD80B584B002AF78600B46FB70FA78ED
:104670000023019300230093134600220021786851
:10468000FFF7C6FF00BF0837BD4680BD80B584B0C8
:1046900000AF78603B1D1846FFF7AEFFF8607A6800
:1046A000FB6802F5E07253F8223023F00203BB608E
:1046B0007A68FB6802F5E072B96843F8221000BF1F
:1046C0001037BD4680BD80B584B000AF78600B4622
:1046D000FB703B1D1846FFF78FFFF8607A6879681A
:1046E000FB6801F5E07153F8213023F44031FB6899
:1046F00002F5E07243F822107A687968FB6801F5E8
:10470000E07153F82130F97809041943FB6802F588
:10471000E07243F8221000BF1037BD4680BD80B55F
:1047200084B000AF78603B1D1846FFF765FFF86066
:10473000F86800F021F802467B6822FA03F303F0E0
:10474000010318461037BD4680BD80B584B000AF68
:1047500078603B1D1846FFF74FFFF8607A68FB68EA
:1047600002F5E07253F822301B0C03F00303DBB2B6
:1047700018461037BD4680BD80B483B000AF786066
:104780007B68D3F8103518460C37BD465DF8047BBE
:10479000704780B586B000AFF860B9607A604FF0BE
:1047A000A0433B61FB687B6112E07B699B0007F1E2
:1047B0001802134453F8083C1846FFF7DDFF024681
:1047C0007B681A607B6804337B607B6901337B61A3
:1047D000FA68BB681A447B699A42E6D800BF18376A
:1047E000BD4680BD80B485B000AF786039603B685D
:1047F000FB607B68DB08BB607B6803F007037B60C2
:1048000001227B6802FA03F3F968BA680A44127855
:10481000134018461437BD465DF8047B704780B4DA
:1048200085B000AF786039603B68FB607B68DB086F
:10483000BB607B6803F007037B60FA68BB681344C6
:10484000F968BA680A44127851B201207A6800FA0D
:1048500002F252B20A4352B2D2B21A7000BF1437F7
:10486000BD465DF8047B704780B483B000AF7860CC
:104870000D4A7B681344303393F90030002B09DB79
:10488000094A7B681344303393F90030072B01DC6D
:10489000012300E0002303F00103DBB218460C37CC
:1048A000BD465DF8047B7047D409002080B483B016
:1048B00000AF7860084A7B681344303393F90030C6
:1048C000072BCCBF01230023DBB218460C37BD46B3
:1048D0005DF8047B704700BFD409002080B483B02A
:1048E00000AF7860074A7B681344303393F9003097
:1048F000DB43DBB2DB09DBB218460C37BD465DF8A3
:10490000047B7047D409002080B485B000AFF86004
:10491000B9607A60FB70BB6859B2104AFB681344F7
:1049200030330A461A700D49BB687A6841F8232073
:10493000FB7883F00103DBB2002B08D0BB68083B97
:10494000FA6851B2054A13440A4683F8502000BF62
:104950001437BD465DF8047B704700BFD4090020C2
:1049600080B483B000AF7860054A7B68134430336D
:10497000FF221A7000BF0C37BD465DF8047B7047FC
:10498000D409002080B483B000AF7860054A7B680A
:104990001344303393F9003018460C37BD465DF8A8
:1049A000047B7047D409002080B483B000AF7860E6
:1049B000044A7B6852F8233018460C37BD465DF830
:1049C000047B7047D409002080B588B000AFF86040
:1049D000B9601346FB71FF23FB77FB79002B01D0F5
:1049E000002300E008237B61FB79002B01D0082322
:1049F00000E00C233B617B69BB6112E00E4ABB699E
:104A000052F82330B3F1FF3F08D1FB79BA68B96996
:104A1000F868FFF779FFBB69FB7706E0BB690133F4
:104A2000BB61BA693B699A42E8D397F91F301846CF
:104A30002037BD4680BD00BFD409002080B483B0BC
:104A400000AF0346FB71FB790A4A4FF0FF3142F891
:104A50002310FB79072B06D9FB79083B054A134441
:104A6000FF2283F8502000BF0C37BD465DF8047B61
:104A7000704700BFD409002080B582B000AF1D4B45
:104A800093F85430002B03D008233B603B682CE0A4
:104A90000023FB7106E0FB791846FFF761FFFB7905
:104AA0000133FB71FB791F2BF5D90023FB7106E065
:104AB000FB791846FFF7C2FFFB790133FB71FB79E5
:104AC0000B2BF5D907210620FEF7F2FD4FF4BE703F
:104AD000FFF7A0FC4FF00040FFF7C6FC054B01229A
:104AE00083F8542000233B603B6818460837BD46D6
:104AF00080BD00BFD409002080B400AF064B93F8FE
:104B00005430002B14BF01230023DBB21846BD46EE
:104B10005DF8047B704700BFD409002080B586B0E3
:104B200000AFF860B9607A6000237B61F868FFF736
:104B3000D5FE0346002B02D008237B6140E0BB6812
:104B4000DB781A467968F868FFF73EFF0346FB7486
:104B500097F91330B3F1FF3F30D0BB689B78002B3F
:104B600003D0F868FFF792FD05E0BB685B78194653
:104B7000F868FFF776FDBB68DB78002B08D097F963
:104B80001300BB681B781A46F968FFF7D3FC17E0DF
:104B900097F91330083B97F91320083A0B490A4458
:104BA00092F95010BA681278920152B20A4351B287
:104BB000064A13440A4683F8502001E004237B612F
:104BC0007B6918461837BD4680BD00BFD409002058
:104BD00080B586B000AF78600B46FB707868FFF751
:104BE00065FE0346002B27D07868FFF7CBFE03460F
:104BF000083B2A4A134493F95030BB75BB7D9B098F
:104C00007B757B7D032B0AD17868FFF788FD03460F
:104C1000002B01D0032300E00223FB7506E07B7D1F
:104C2000012B01D1022300E00323FB75FB7D194614
:104C30007868FFF748FD2DE07868FFF715FE03461A
:104C4000002B27D07868FFF79DFE03463B613B6948
:104C50009BB240339BB29B00FB813B691846FFF738
:104C600035FCFB891846FFF7D5FBFB78002B11D0EC
:104C70007868FFF787FE03461846FFF795FEB86091
:104C8000BB68002B06D001223B6902FA03F31846E9
:104C9000FFF7EAFB00BF1837BD4680BDD4090020EE
:104CA00080B584B000AF78607868FFF7FFFD0346F9
:104CB000002B04D000217868FFF705FD15E0786827
:104CC000FFF7D2FD0346002B0FD07868FFF75AFE9E
:104CD0000346FB60FB681846FFF712FC0122FB68E5
:104CE00002FA03F31846FFF7CFFB00BF1037BD46AB
:104CF00080BD80B582B000AF78607868FFF70FFDA7
:104D00000346002B14BF01230023DBB218460837EB
:104D1000BD4680BD80B594B000AF0023FB64002386
:104D2000FB604FF48073A7F8463001233B640023F7
:104D3000BB6421E0B7F846301846FFF757FB03463F
:104D4000002B0ED0386CFFF7AFFB0346002B08D0CA
:104D5000B7F846301846FFF75DFBFA6C3B6C13431F
:104D6000FB643B6C5B003B64B7F846300433A7F848
:104D70004630BB6C0133BB64BB6C072BDAD94FF4F4
:104D8000BE70FFF733FB0346002B0ED04FF4BE700E
:104D9000FFF740FBFB6C43F00043FB6407F10C039F
:104DA0001A4601210020FFF7F4FCFB6CDBB2002B5C
:104DB00029D001233B640023BB6421E03A6CFB6CE7
:104DC0001340002B16D0B86CFFF7EAFB7863B86C81
:104DD000FFF7FCFB034687F83330B86CFFF7E4FDC0
:104DE000F862FB6A002B05D097F83320FB6A114666
:104DF000786B98473B6C5B003B64BB6C0133BB64D6
:104E0000BB6C072BDAD9FB6C002B80F2F1800023FE
:104E100087F83B300023BB600023FB630BE0FB6B98
:104E20009B0007F1500213444FF0FF3243F84C2C23
:104E3000FB6B0133FB63FB6B002BF0D0002387F887
:104E40003B300023BB6474E06B4ABB6C13445033AB
:104E500093F9003087F82B3097F82B3023F0C003FC
:104E60007B62654ABB6C1344503393F90030B3F155
:104E7000FF3F5BD03B1D1946786AFFF7B3FC034642
:104E8000002B53D097F82B309B0987F82330786A92
:104E9000FFF778FD03461846FFF786FDF861FB69CA
:104EA000002B03D197F82330032B3FD197F8233001
:104EB000032B05D107F108031946786AFFF7AFFC09
:104EC000786AFFF742FC0346FB7607F10C031946AC
:104ED000786AFFF787FC78617B69002B02D0FB7E44
:104EE000022B05D07B69002B20D1FB7E032B1DD12B
:104EF00097F82330032B10D1FB7E022B01D1032323
:104F000000E00223FB74FB7C1946786AFFF7DBFBA9
:104F100097F83B30013387F83B30FB69002B05D015
:104F200097F82320FB691146786A9847BB6C0133D8
:104F3000BB64BB6C032B87D997F83B30002B52D056
:104F4000012387F83A303B461A4601210020FFF73B
:104F500020FC0023FB6316E0FB6B9B0007F1500273
:104F6000134453F8502CFB6B9B0007F150010B448A
:104F700053F8443C9A4203D0002387F83A3005E0C6
:104F8000FB6B0133FB63FB6B002BE5D097F83A30EA
:104F9000002B03D0002387F83B3024E00023FB6381
:104FA0001EE0FB6B9B0007F15002134453F8502C9A
:104FB000FB6B9B0007F150010B4443F8442CFB6B47
:104FC0009B0007F15002134453F8482CFB6B9B00E5
:104FD00007F150010B4443F84C2CFB6B0133FB638E
:104FE000FB6B002BDDD097F83B30002B7FF426AF16
:104FF00000BF5037BD4680BDD409002080B485B0C5
:1050000000AF78600B467B807B887A68134400226F
:105010001A607B887A6813441B68FB60FB6800BFDA
:105020001437BD465DF8047B704780B483B000AF91
:1050300078600B467B807B887A6813441B68002B62
:1050400014BF01230023DBB218460C37BD465DF8C0
:10505000047B704780B483B000AF786039607B68B0
:105060003A68C3F8042300BF0C37BD465DF8047BE3
:10507000704780B483B000AF786039607B683A686D
:10508000C3F8082300BF0C37BD465DF8047B7047AA
:1050900080B483B000AF78607B680122C3F800253C
:1050A00000BF0C37BD465DF8047B704780B485B007
:1050B00000AFF860B9607A603B60FB68BA68C3F81B
:1050C0000825FB687A68C3F80C25FB683A68C3F8C2
:1050D000102500BF1437BD465DF8047B704780B4CF
:1050E00083B000AF78600B46FB70FA787B68C3F83A
:1050F0001C2500BF0C37BD465DF8047B704780B4AB
:1051000083B000AF78607B68D3F81835DBB21846FF
:105110000C37BD465DF8047B704780B483B000AFA8
:10512000786039603A687B68C3F8242500BF0C3783
:10513000BD465DF8047B704780B485B000AF7860F1
:105140000B46FB701346BB70BB78002B14BF0123CA
:105150000023DBB2FB60FB78022B09D0032B0CD0C1
:10516000012B00D00EE0FB6843F00203FB6009E076
:10517000FB6843F00403FB6004E0FB6843F00603B4
:10518000FB6000BF7B68FA68C3F8542500BF143782
:10519000BD465DF8047B704780B483B000AF786093
:1051A0004FF0A04318460C37BD465DF8047B7047AE
:1051B00080B584B000AF7860084611461A460346B1
:1051C000FB700B46BB7013467B703B1D1846FFF708
:1051D000E3FFF8607A68F978BB785B0019437B7865
:1051E0009B0019433B7E1B0219433B7F1B04194361
:1051F000FB6802F5E07243F8221000BF1037BD468D
:1052000080BD80B584B002AF786000230193002395
:1052100000930023012201217868FFF7C9FF00BF36
:105220000837BD4680BD80B584B002AF78600B46BC
:10523000FB70FA78002301930023009313460022A9
:1052400000217868FFF7B4FF00BF0837BD4680BD76
:1052500080B584B000AF78603B1D1846FFF79CFF17
:10526000F8607B68012202FA03F31946F86800F03F
:1052700019F800BF1037BD4680BD80B584B000AFBF
:1052800078603B1D1846FFF787FFF8607B680122B6
:1052900002FA03F31946F86800F013F800BF10375C
:1052A000BD4680BD80B483B000AF786039607B6854
:1052B0003A68C3F8082500BF0C37BD465DF8047B8B
:1052C000704780B483B000AF786039607B683A681B
:1052D000C3F80C2500BF0C37BD465DF8047B704752
:1052E00080B58CB002AFF860B9607A603B60FB6853
:1052F0005B791A461346DB0013449B00594A13445A
:10530000FB61FB691B7F002B03D00823BB61BB69DA
:10531000A4E0FB697A681A60FB693A685A60BB6866
:105320001B7B012B05D8BB681B781846FFF7A5FF30
:1053300004E0BB681B781846FFF78AFFBB681B7840
:10534000184600230193002300930023002201212B
:10535000FFF72EFFBB685B78FF2B09D0BB685B783B
:105360007B62786AFFF789FF786AFFF74AFF02E0FD
:105370004FF0FF337B62BB689B78FF2B07D0BB6885
:105380009B783B620121386AFFF74DFF02E04FF046
:10539000FF333B62BB68DB78FF2B09D0BB68DB784F
:1053A0001846FFF755FFBB68DB781846FFF729FF63
:1053B000FB685B791946BB68D8782A4A0B46DB0044
:1053C0000B449B0013441E3302461A70FB681B6893
:1053D0007B61BB681B7819463B6A7A6A7869FFF77C
:1053E00065FEBB689B6819467869FFF796FEBB6847
:1053F000197BBB685B7B1A467869FFF79DFEFB68EB
:105400005B791946BB685879164A0B46DB000B449A
:105410009B0013441F3302461A70FB691B68002B64
:1054200003D004217869FFF715FE7869FFF730FE95
:10543000FB691B68002B08D0FB6893F90420BB684C
:105440001B7919461046FEF733F9FB6900225A779B
:10545000FB6901221A770023BB61BB691846283714
:10546000BD4680BD2C0A002080B588B000AFF86032
:10547000B9603B601346FB71BB683B613B68BB6135
:10548000FB793B7597F828303B7707F11003002232
:105490001946F86800F006F9034618462037BD465D
:1054A00080BD80B582B000AF78607B689B7FFF2BAA
:1054B00004D07B689B7F1846FFF7CAFE7B680022FA
:1054C0005A777B6800221A727B681B687A6802F13F
:1054D00008007A6852681146984700BF0837BD46F1
:1054E00080BD80B584B000AF786039607868FFF720
:1054F00006FE03467B733B6893F820203B681B7EC7
:105500009A4208D23B685B693A6892F820201344BB
:105510007A7BD2B21A703B6893F820300133DAB24A
:105520003B6883F820203B6893F820309BB201331E
:10553000FB813B6893F8213003F00403DBB2002BBE
:1055400013D03B681B7C9BB2FA899A4203D2FB8939
:10555000DAB23B681A743B681B7E9BB2FA899A42A6
:1055600003D2FB89DAB23B681A763B681B7C9BB29C
:10557000FA899A420AD23B68DA68FB8913441B789D
:1055800019467868FFF7ABFD012321E03B681B7EDD
:105590009BB2FA899A4207D23B68DB7F194678684A
:1055A000FFF79DFD012313E03B6893F820203B6843
:1055B0001B7C9A4206D33B6893F820203B681B7EF5
:1055C0009A4201D2012300E0002303F00103DBB281
:1055D00018461037BD4680BD80B584B000AFF86076
:1055E000B9607A60BB68002283F820200421F86843
:1055F000FFF73FFD4FF48471F868FFF7FFFC7B680D
:105600001B79002B03D07B681B681B7801E0BB680B
:10561000DB7F1946F868FFF762FD7B681B79012B79
:1056200008D97B681B6801331B781946F868FFF7B7
:1056300056FD09E07B681B7B012B05D9BB68DB7F2E
:105640001946F868FFF74BFDBB681B68002B04D0B8
:105650000421F868FFF7FEFC20E000BF4FF48471DE
:10566000F868FFF7E2FC034683F00103DBB2002B8E
:10567000F4D14FF48471F868FFF7C0FCB968F8689A
:10568000FFF72FFF0346002BE7D1BB689B7FFF2B63
:1056900004D0BB689B7F1846FFF7DAFD00BF1037C8
:1056A000BD4680BD90B587B000AFF860B9607A6044
:1056B000FB685B791A461346DB0013449B002A4AB9
:1056C00013443B6100237B613B695B7FDBB2002BB2
:1056D00003D011237B617B6942E03B691B68002B8F
:1056E00007D07B6803F01403002B02D13B69012231
:1056F0005A773B69BA6803F10C0413460FCB84E870
:105700000F003A6992F821306FF3000382F82130DC
:105710003A6992F821306FF3410382F821303A69F7
:1057200092F821306FF3820382F821303B699B7F2E
:10573000FF2B04D03B699B7F1846FFF79EFD7B68DB
:10574000002B05D03B6900225A7706237B6106E0D7
:10575000FB681B68BA6839691846FFF73DFF7B692B
:1057600018461C37BD4690BD2C0A002080B582B07B
:1057700000AF786039604FF484717868FFF73EFCC1
:1057800039687868FFF7ADFE034683F00103DBB2AA
:10579000002B02D03868FFF784FE00BF0837BD46F3
:1057A00080BD000080B582B000AF054B7B6079689A
:1057B0000448FFF7DBFF00BF0837BD4680BD00BFD0
:1057C0002C0A00200030004080B483B000AF0346B4
:1057D000FB71094997F907305B09FA7902F01F025A
:1057E000012000FA02F2203341F8232000BF0C37D9
:1057F000BD465DF8047B704700E100E080B485B0F1
:1058000000AF78600B467B807B887A681344002267
:105810001A607B887A6813441B68FB60FB6800BFD2
:105820001437BD465DF8047B704780B483B000AF89
:1058300078600B467B807B887A6813441B68002B5A
:1058400014BF01230023DBB218460C37BD465DF8B8
:10585000047B704780B483B000AF786039607B68A8
:105860003A68C3F8042300BF0C37BD465DF8047BDB
:10587000704780B483B000AF786039607B68D3F83C
:1058800004233B681340002B14BF01230023DBB229
:1058900018460C37BD465DF8047B704780B483B072
:1058A00000AF786039607B683A68C3F8082300BFAE
:1058B0000C37BD465DF8047B704780B485B000AFFF
:1058C00078607B68D3F88034FB607B68FA68C3F843
:1058D0008024FB6818461437BD465DF8047B70478A
:1058E00080B483B000AF78607B680422C3F80025E1
:1058F00000BF0C37BD465DF8047B704780B483B0B1
:1059000000AF78607B680022C3F8002500BF0C3729
:10591000BD465DF8047B704780B485B000AFF86089
:10592000B9607A60FB687A68C3F81425FB68BA68C6
:10593000C3F80C2500BF1437BD465DF8047B7047E3
:1059400080B582B000AF78604FF0FF324FF0FF318A
:105950007868FFF7E1FF00BF0837BD4680BD80B41F
:1059600083B000AF78607B68D3F80C3518460C37ED
:10597000BD465DF8047B704780B483B000AF7860AB
:105980007B68D3F8143518460C37BD465DF8047BA8
:10599000704780B483B000AF78607B68D3F8083577
:1059A00018460C37BD465DF8047B704780B483B061
:1059B00000AF78607B68D3F8103518460C37BD46C9
:1059C0005DF8047B704780B485B000AFF860B960C3
:1059D0007A60FB68BA68C3F80825FB687A68C3F880
:1059E000102500BF1437BD465DF8047B704780B5B5
:1059F00082B000AF78604FF0FF324FF0FF3178682F
:105A0000FFF7E1FF00BF0837BD4680BD80B483B01B
:105A100000AF78607B68D3F81835DBB218460C37D6
:105A2000BD465DF8047B704780B483B000AF7860FA
:105A30000B46FB70FA787B68C3F81C2500BF0C3757
:105A4000BD465DF8047B704780B483B000AF7860DA
:105A50000B46FB70FB787A68134401221A6000BF82
:105A60000C37BD465DF8047B704780B483B000AF4F
:105A700078600B46FB701346BB70FA78BB78134313
:105A8000DBB21A467B68C3F86C2500BF0C37BD46F5
:105A90005DF8047B704780B483B000AF78603960F4
:105AA0007B683A68C3F8242500BF0C37BD465DF813
:105AB000047B704780B485B000AF78600B467B8074
:105AC0007B887A68134400221A607B887A681344C2
:105AD0001B68FB60FB6800BF1437BD465DF8047BA4
